:020000040800F2
:1000000000500020A5150008B9070008BB0700082C
:10001000BD070008BF070008C10700080000000076
:10002000000000000000000000000000C3070008FE
:10003000C507000800000000C7070008C90700083E
:10004000ED150008ED150008ED150008ED15000888
:10005000ED150008ED150008ED150008ED15000878
:10006000ED150008ED150008ED150008ED15000868
:10007000ED150008ED150008ED150008ED15000858
:10008000ED150008ED150008ED150008ED15000848
:10009000ED150008ED150008ED150008ED15000838
:1000A000ED150008ED150008ED150008ED15000828
:1000B000ED150008ED150008ED150008ED15000818
:1000C000ED150008ED150008ED150008ED15000808
:1000D000ED150008ED150008ED150008ED150008F8
:1000E000D1070008ED150008ED150008000000001C
:1000F0000000000000000000000000000000000000
:0C01000000000000000000005FF808F1A3
:10010C0010B5054C237833B9044B13B10448AFF345
:10011C0000800123237010BD70000020000000003F
:10012C00441F000808B5034B1BB103490348AFF348
:10013C00008008BD0000000074000020441F00086F
:10014C0010F8012B11F8013B012A28BF9A42F7D075
:10015C00D01A7047034613F8012B002AFBD1181A4A
:10016C0001387047F0B40446074F00F140063D4695
:10017C0020686168A268E3680FC510342F46B4424A
:10018C00F5D1F0BC704700BF9C000020F8B50446C8
:10019C000E461746642001F04FFA0546214601F041
:1001AC001DFB002408E02846FFF7D4FF57F8241065
:1001BC00284401F013FB0134B44208DA002CF2D0CD
:1001CC002846FFF7C7FF074B1B882B52EBE7284647
:1001DC00FFF7C0FF2A18044B19889B78295293709B
:1001EC002846F8BD8C1F0008EC2100082DE9F041D1
:1001FC0000AFADF5FA6D6D46ADF5FA6DE8464FF40E
:10020C007A734FF4FA6269461A4801F053F90024E4
:10021C00B4F5FA6F2BDA18F804302B55661C002352
:10022C00AB55032C08DD2846FFF794FF0438124920
:10023C002844FFF785FF88B1052C16DD2846FFF70B
:10024C0089FF06380D492844FFF77AFF3446002809
:10025C00DED10B49284601F0E9FA03E008492846AB
:10026C0001F0E4FABD46BDE8F0813446D0E703481E
:10027C00F8E700BF9C000020981F0008901F0008A2
:10028C005C1F000808B5FFF7B1FF0449FFF758FFE2
:10029C0008B9012008BD0220FCE700BF981F000828
:1002AC002DE9F0439DB000AF04468846FFF79EFF52
:1002BC000646FFF74FFF054604381C493044FFF74C
:1002CC003FFF70B102233B73194B3B6107F10C03E9
:1002DC0093E8030084E8030020467437BD46BDE86C
:1002EC00F083E9464046FFF735FF411C6A1AD51EDC
:1002FC00131D23F00703ADEB030D043A314468469C
:10030C0001F0A2F90B4B0DF8053007F10C0569460D
:10031C00284601F083FA01233B71BD603B1D93E835
:10032C00030084E80300CD46D6E700BF981F000801
:10033C00602100085C1F00082DE9F047E8B0064674
:10034C008946FFF753FF8046FFF704FF0746041F5B
:10035C0044442046FFF7FEFE002323542A4920463E
:10036C00FFF7EEFE70B11DAB02228DF87420274A08
:10037C001E921F9220920FCB86E80F00304668B079
:10038C00BDE8F08705464846FFF7E4FE00F1010999
:10039C00A7EB0907063F04AC4FF0000ACDF810A0FC
:1003AC006022514605A801F05AF93A4608EB0901BA
:1003BC00204601F049F904F807A01549204601F040
:1003CC0035FA044611E02046FFF7C4FE00272754F7
:1003DC00214664201DAB00FB053001F01FFA0135EE
:1003EC000B49384601F022FA0446002CEBD16B463F
:1003FC0001221A701DAA5A6036AA9A604FAADA60B6
:10040C000FCB86E80F00B9E7981F000860210008A1
:10041C008C1F000810B582B002AA42F8040D01210D
:10042C000748FFF7B3FE0446FFF794FE642382B23D
:10043C002146044800F0CEFFFFF724FF02B010BDA8
:10044C00F01F00089C00002010B5044664230A220B
:10045C000449054800F0BEFF04492046FFF720FF81
:10046C00204610BDFC1F00089C000020082000083E
:10047C0010B584B001900291039201AA032108489F
:10048C00FFF784FE0446FFF765FE642382B2214623
:10049C00044800F09FFFFFF7F5FE04B010BD00BF4D
:1004AC00C02000089C00002010B5044664230A22DA
:1004BC000449054800F08EFF04492046FFF73CFF35
:1004CC00204610BDCC2000089C000020D82000083D
:1004DC0030B589B000240494059406940794254BF8
:1004EC009A6942F010029A619A6902F01002009225
:1004FC00009A9A6942F020029A619A6902F02002ED
:10050C000192019A9A6942F004029A619A6902F086
:10051C0004020292029A9A6942F008029A619B695B
:10052C0003F008030393039B134D22462021284616
:10053C0000F044FB4FF400530493104B05930694C6
:10054C0004A90F4800F04EFA2023049301230593CD
:10055C0006940223079304A9284600F043FA224686
:10056C002146282000F0E6F9282000F017FA09B0FF
:10057C0030BD00BF00100240000801400000111007
:10058C000010014008B50848084B03604FF41643AF
:10059C00436000238360C36003610C22426183616A
:1005AC00C36100F0E8FE08BD1C01002000440040BF
:1005BC0008B50848084B03604FF41643436000230A
:1005CC008360C36003610C2242618361C36100F0EC
:1005DC00D2FE08BDDC0000200038014030B591B0DF
:1005EC002022002107A801F03AF80024019402947B
:1005FC000394049405940225069501230A93102371
:10060C000B930D954FF460130F9306A800F002FBAB
:10061C000F230193029503944FF480630493059484
:10062C00294601A800F036FD11B030BD30B58BB0B5
:10063C0000F036F9FFF7D2FFFFF74AFFFFF7A2FFF2
:10064C00FFF7B6FF4FF47A7000F04EF91248FFF73F
:10065C0089FD06AD2846FFF727FF10490A461048CA
:10066C00FFF706FF6C462046FFF71EFF94E80F00CD
:10067C0085E80F0004AD2846FFF7E6FE0948FFF7B2
:10068C00C9FE2046FFF7E0FE94E8030085E803006E
:10069C00642000F029F9FEE7DC000020802200082D
:1006AC007C2200088422000882B00E4B9A6942F02A
:1006BC0001029A619A6902F001020092009ADA69C9
:1006CC0042F08052DA61DB6903F080530193019BA5
:1006DC00054A536823F0E06343F00073536002B0A3
:1006EC00704700BF001002400000014010B588B0F8
:1006FC00002304930593069307930368274A9342B8
:10070C0004D0274A93422BD008B010BD254B9A69D0
:10071C0042F480429A619A6902F480420092009AF3
:10072C009A6942F004029A619B6903F004030193F5
:10073C00019B4FF400730493022305930323079347
:10074C00194C04A9204600F04DF94FF48063049332
:10075C0000230593069304A9204600F043F9D3E740
:10076C00104BDA6942F40032DA61DA6902F40032D1
:10077C000292029A9A6942F004029A619B6903F010
:10078C0004030393039B0C23049302230593079305
:10079C0004A9054800F026F9B6E700BF003801406F
:1007AC00004400400010024000080140FEE7FEE754
:1007BC00FEE7FEE7FEE770477047704708B500F0AC
:1007CC0081F808BD08B54FF4005000F0FFF908BDE2
:1007DC0008B503460B4A126842B10A4A1068034432
:1007EC006A46934206D8074A136008BD054A064973
:1007FC001160F2E700F0F6FE0C2303604FF0FF30BF
:10080C00F3E700BF8C000020680100200F4B1A6832
:10081C0042F001021A6059680D4A0A405A601A687F
:10082C0022F0847222F480321A601A6822F4802238
:10083C001A605A6822F4FE025A604FF41F029A6042
:10084C00044B4FF000629A60704700BF00100240EA
:10085C000000FFF800ED00E010B504460E4B1878D0
:10086C004FF47A73B3FBF0F30C4A1068B0FBF3F05F
:10087C0000F0A2F868B90F2C01D901200AE000227F
:10088C0021464FF0FF3000F055F8034B5C60002020
:10089C0000E0012010BD00BF04000020000000207B
:1008AC0008B5074A136843F010031360032000F0E7
:1008BC002FF80020FFF7D0FFFFF7F6FE002008BD51
:1008CC0000200240034A1168034B1B780B44136051
:1008DC00704700BF5C01002004000020014B186829
:1008EC00704700BF5C01002038B50446FFF7F6FFE7
:1008FC000546B4F1FF3F02D0044B1B781C44FFF7B4
:10090C00EDFF401BA042FAD338BD00BF040000200D
:10091C00074AD36823F4E0631B041B0C000200F4A9
:10092C00E060184340F0BF6040F40030D060704786
:10093C0000ED00E030B4174BDB68C3F30223C3F1C6
:10094C000704042C28BF04241D1D062D18D9033BB5
:10095C004FF0FF3505FA04F421EA0401994005FA39
:10096C0003F322EA0303194300280BDB0901C9B284
:10097C0000F1604000F5614080F8001330BC704716
:10098C000023E5E700F00F000901C9B2024B19542E
:10099C00F4E700BF00ED00E014ED00E0002807DBF9
:1009AC0000F01F02400901239340024A42F8203014
:1009BC00704700BF00E100E00138B0F1807F0AD23F
:1009CC00064B5860064AF02182F8231000209860EC
:1009DC0007221A6070470120704700BF10E000E04A
:1009EC0000ED00E0F0B482B000263246A2E0002D0B
:1009FC005AD0012D00D1CE68FF2B69D88446FF2B2D
:100A0C0069D89500DCF800400F27AF4024EA0704B2
:100A1C0006FA05F52C43CCF800404C6814F0805FC6
:100A2C0000F087805F4CA56945F00105A561A469BC
:100A3C0004F001040194019C9508AF1C5A4C54F825
:100A4C00274002F00307BF004FF00F0C0CFA07FC15
:100A5C0024EA0C0C554CA04243D004F58064A0420F
:100A6C0000F0818004F58064A0427ED004F580649F
:100A7C00A04234D0042435E04D4FBD4214D00BD9E4
:100A8C004C4FBD4210D007F58037BD420CD0A7F5B6
:100A9C008017BD42B0D107E0A7F58017BD4203D047
:100AAC0007F58037BD42A7D18D687DB1012D08D0E7
:100ABC0044610826A0E7CE6808369DE7CE680C3660
:100ACC009AE70461082697E7002695E7042693E742
:100ADC0000F1040C93E7A2F10805AD0092E70324A2
:100AEC0000E00024BC4044EA0C0402352E4F47F8C9
:100AFC0025404C6814F4803F39D02F4D2C681C4392
:100B0C002C604C6814F4003F37D02B4D6C681C43A0
:100B1C006C604C6814F4801F35D0274DAC681C43B6
:100B2C00AC604C6814F4001F33D0234DEC682343A5
:100B3C00EB6001320B6833FA02F430D0012494409C
:100B4C0023409C42F5D14D68122DB7D094D8022D7C
:100B5C00B1D07FF64CAF032DB6D0112D7FF44CAF36
:100B6C00CE68043648E70124BCE70224BAE7124DEC
:100B7C002C6824EA03042C60C3E70F4D6C6824EA4C
:100B8C0003046C60C5E70C4DAC6824EA0304AC604C
:100B9C00C7E7094DEC6824EA0303EB60C9E702B030
:100BAC00F0BC7047001002400000014000080140FA
:100BBC0000002110000031100004014012B909049A
:100BCC0001617047016170477047000008B5054B23
:100BDC005B69034200D108BD024B5861FFF7F4FF7B
:100BEC00F9E700BF0004014082B0084B1B68084ABB
:100BFC00A2FB03235B0A00FB03F0019000BF019BE7
:100C0C005A1E0192002BF9D102B07047000000204F
:100C1C00D34D6210002800F0F58170B582B0044607
:100C2C00036813F0010F2CD0AB4B5B6803F00C0383
:100C3C00042B1DD0A84B5B6803F00C03082B12D0BF
:100C4C006368B3F5803F41D0002B55D103F180434D
:100C5C0003F504331A6822F480321A601A6822F4FD
:100C6C0080221A6037E09C4B5B6813F4803FE7D01E
:100C7C00994B1B6813F4003F03D06368002B00F002
:100C8C00C381236813F0020F76D0934B5B6813F08B
:100C9C000C0F5FD0904B5B6803F00C03082B54D007
:100CAC002369002B00F08A808C4B01221A60FFF71D
:100CBC0015FE0546884B1B6813F0020F75D1FFF724
:100CCC000DFE401B0228F5D90320A0E1824A1368CF
:100CDC0043F480331360636843B3FFF7FFFD0546AD
:100CEC007D4B1B6813F4003FCBD1FFF7F7FD401B86
:100CFC006428F5D903208AE1B3F5A02F09D0764BEF
:100D0C001A6822F480321A601A6822F480221A605F
:100D1C00E1E703F18043A3F53C331A6842F48022E7
:100D2C001A601A6842F480321A60D4E7FFF7D6FDD5
:100D3C000546694B1B6813F4003FA2D0FFF7CEFDAC
:100D4C00401B6428F5D9032061E1634B5B6813F405
:100D5C00803FA5D1604B1B6813F0020F04D02369B0
:100D6C00012B01D0012052E15B4A136823F0F803F8
:100D7C00616943EAC1031360236813F0080F32D092
:100D8C00A369002B5BD0564B01221A60FFF7A6FD1E
:100D9C000546514B5B6A13F0020F21D1FFF79EFD04
:100DAC00401B0228F5D9032031E14B4A136823F08C
:100DBC00F803616943EAC1031360DDE7474B002286
:100DCC001A60FFF78BFD0546434B1B6813F0020FAF
:100DDC00D2D0FFF783FD401B0228F5D9032016E182
:100DEC000120FFF701FF236813F0040F00F0988037
:100DFC00394BDB6913F0805F33D1374BDA6942F042
:100E0C008052DA61DB6903F080530193019B012569
:100E1C00344B1B6813F4807F25D0E368012B36D04C
:100E2C00002B4CD103F1804303F504331A6A22F0F2
:100E3C0001021A621A6A22F004021A622CE0284B90
:100E4C0000221A60FFF74AFD0546234B5B6A13F03C
:100E5C00020FC8D0FFF742FD401B0228F5D9032032
:100E6C00D5E00025D4E71F4A136843F48073136060
:100E7C00FFF734FD06461B4B1B6813F4807FCCD167
:100E8C00FFF72CFD801B6428F5D90320BFE0124A24
:100E9C00136A43F001031362E3687BB3FFF71EFD93
:100EAC0006460D4B1B6A13F0020F38D1FFF716FDE7
:100EBC00801B41F288339842F3D90320A7E0052B1D
:100ECC0012D0054B1A6A22F001021A621A6A22F039
:100EDC0004021A62E0E700BF001002400000424228
:100EEC0080044242007000404C4B1A6A42F00402EB
:100EFC001A621A6A42F001021A62CDE7FFF7EEFCA1
:100F0C000646464B1B6A13F0020F08D0FFF7E6FCAF
:100F1C00801B41F288339842F3D9032077E0E5B97E
:100F2C00E369002B72D03D4A526802F00C02082A89
:100F3C0056D0022B17D03A4B00221A60FFF7CEFC8A
:100F4C000446364B1B6813F0007F47D0FFF7C6FCF6
:100F5C00001B0228F5D9032059E0304AD36923F04D
:100F6C008053D361DCE72E4B00221A60FFF7B6FCEE
:100F7C0005462A4B1B6813F0007F06D0FFF7AEFC2A
:100F8C00401B0228F5D9032041E0236AB3F5803FCA
:100F9C001AD022494B6823F47413226A606A024304
:100FAC0013434B601E4B01221A60FFF797FC04465B
:100FBC001A4B1B6813F0007F0ED1FFF78FFC001B40
:100FCC000228F5D9032022E0144A536823F4003395
:100FDC00A1680B435360DCE7002018E0002016E00A
:100FEC00012B16D00D4B5B6803F48031226A9142C1
:100FFC0001D001200BE003F47013626A93420AD013
:10100C00012004E001207047012000E0002002B024
:10101C0070BD0120FBE70020F9E700BF0010024083
:10102C006000424210B487B0164C94E80F000DF1EA
:10103C00180C0CE90F00238AADF80430124B5B68D6
:10104C0003F00C02082A1AD1C3F38342624412F84B
:10105C00102C13F4803F05D10C4800FB02F007B0B4
:10106C0010BC7047084B5B68C3F34043634413F8F0
:10107C00143C074800FB02F0B0FBF3F0EFE7044828
:10108C00EDE700BF781F00080010024000093D008A
:10109C0000127A00002800F0A38070B50446524B71
:1010AC001B6803F007038B420CD24F4A136823F0E2
:1010BC0007030B431360136803F007038B4201D043
:1010CC00012070BD236813F0020F17D013F0040F2A
:1010DC0004D0464A536843F4E0635360236813F02A
:1010EC00080F04D0414A536843F4605353603F4A9D
:1010FC00536823F0F003A068034353600D46236844
:10110C0013F0010F31D06368012B20D0022B25D0B6
:10111C00364A126812F0020F64D034494A6822F041
:10112C00030213434B60FFF7D9FB06462F4B5B685A
:10113C0003F00C036268B3EB820F16D0FFF7CEFB03
:10114C00801B41F288339842F0D90320B9E7274A33
:10115C00126812F4003FE0D10120B2E7234A126872
:10116C0012F0007FD9D10120ABE71F4B1B6803F0B5
:10117C000703AB420CD91C4A136823F007032B431B
:10118C001360136803F00703AB4201D0012098E70A
:10119C00236813F0040F06D0144A536823F4E06359
:1011AC00E1680B435360236813F0080F07D00F4A14
:1011BC00536823F46053216943EAC1035360FFF77A
:1011CC0031FF0A4B5B68C3F30313094AD35CD84065
:1011DC00084B1860084B1868FFF73EFB002070E7BF
:1011EC000120704701206CE70020024000100240F3
:1011FC00601F00080000002008000020014B186848
:10120C00704700BF0000002008B5FFF7F7FF044B44
:10121C005B68C3F30223034AD35CD84008BD00BF0C
:10122C0000100240701F000808B5FFF7E7FF044BE1
:10123C005B68C3F3C223034AD35CD84008BD00BF2C
:10124C0000100240701F000838B50446026813698C
:10125C0023F44053C1680B43136183680269134341
:10126C0042691A430168CB6823F4B05323F00C0392
:10127C001343CB600268536923F4407381690B43B9
:10128C0053610268214B9A421FD0FFF7BDFF00EB60
:10129C00800000EB800063689B00B0FBF3F01C4DFA
:1012AC00A5FB00325109642202FB110213013233F7
:1012BC00A5FB03235B0903F0F00202EB011203F020
:1012CC000F03216813448B6038BDFFF7ADFF00EBB3
:1012DC00800000EB800063689B00B0FBF3F00C4DCA
:1012EC00A5FB00325109642202FB110213013233B7
:1012FC00A5FB03235B0903F0F00202EB011203F0E0
:10130C000F03216813448B60DEE700BF00380140F7
:10131C001F85EB512DE9F04105460F4616469846C0
:10132C00069C2B681B6837EA03030CBF01230023C0
:10133C00B3421DD1B4F1FF3FF3D02CB1FFF7CEFA7D
:10134C00A0EB0800A042ECD92A68D36823F4D07330
:10135C00D3602A68536923F001035361202385F875
:10136C00393085F83A30002385F83830032000E016
:10137C000020BDE8F08158B310B5044690F8393020
:10138C000BB3242384F839302268D36823F4005338
:10139C00D3602046FFF758FF2268136923F490436B
:1013AC0013612268536923F02A0353612268D368BE
:1013BC0043F40053D3600020E063202384F83930D9
:1013CC0084F83A3010BD80F83830FFF78FF9D8E741
:1013DC00012070472DE9F04182B01E4690F839305B
:1013EC00DBB2202B55D104460D469046002955D032
:1013FC00002A55D090F83830012B53D0012380F8B7
:10140C0038300023C363212380F83930FFF766FAA4
:10141C000746A4F82480A4F8268010E000963B46EA
:10142C00002280212046FFF775FF00283CD12B8835
:10143C002268C3F3080353602369C3B90235E38CF4
:10144C009BB2B3B1E38C013B9BB2E384A368B3F5CD
:10145C00805FE3D000963B46002280212046FFF7B8
:10146C0059FF18BB2A7823685A600135E7E7013524
:10147C00E5E700963B46002240212046FFF74AFF55
:10148C000346A8B9202284F83920002284F8382099
:10149C0000E00223184602B0BDE8F0810123F9E711
:1014AC000123F7E70223F5E70323F3E70323F1E72F
:1014BC000323EFE72DE9F04182B01E4690F83A3055
:1014CC00DBB2202B5AD104460D469046002959D048
:1014DC00002A59D090F83830012B57D0012380F8CE
:1014EC0038300023C363222380F83A30FFF7F6F933
:1014FC000746A4F82C80A4F82E801DE000963B46ED
:10150C00002220212046FFF705FF002840D1236947
:10151C0033B923685B68C3F3080325F8023B0BE07F
:10152C0023685B68DBB225F8013B05E023685B6848
:10153C0003F07F032B700135E38D9BB2BBB1E38DC0
:10154C00013B9BB2E385A368B3F5805FD6D00096D0
:10155C003B46002220212046FFF7DCFED0B9236950
:10156C00002BE3D123685B682B700135E4E7202363
:10157C0084F83A30002084F8380000E0022002B0F1
:10158C00BDE8F0810120FAE70120F8E70220F6E738
:10159C000320F4E70320F2E7002103E00B4B5B5838
:1015AC00435004310A480B4B42189A42F6D30A4A6C
:1015BC0002E0002342F8043B084B9A42F9D3FFF7B0
:1015CC0025F900F015F8FFF731F87047D022000824
:1015DC00000000207000002070000020640100203A
:1015EC00FEE70000014B1868704700BF0C0000209C
:1015FC0070B500250C4E0D4CA41BA410A54209D1AE
:10160C0000F09AFC00250A4E0A4CA41BA410A5421B
:10161C0005D170BD56F8253098470135EEE756F8E0
:10162C00253098470135F2E7C8220008C822000887
:10163C00C8220008CC220008024B0146186800F0B2
:10164C0063B800BF0C00002010B5431E0A44914241
:10165C0000D110BD11F8014B03F8014FF7E7034619
:10166C000244934200D1704703F8011BF9E70000D4
:10167C0038B50546002943D051F8043C0C1F002B0B
:10168C00B8BFE41800F026F91E4A1368104633B9A7
:10169C00636014602846BDE8384000F01CB9A342D2
:1016AC000BD921686218934201BF1A685B68521803
:1016BC00226063600460EDE713465A680AB1A242E7
:1016CC00FAD919685818A0420BD12068014458184F
:1016DC0082421960DED110685268014419605A6068
:1016EC00D8E702D90C232B60D4E7206821188A4252
:1016FC0001BF116852680918216062605C60C9E71B
:10170C0038BD00BF9400002070B5CD1C25F003053A
:10171C0008350C2D38BF0C25002D064601DBA942DF
:10172C0003D90C233360002070BD00F0D3F8214A9C
:10173C001468214691B9204C23681BB9304600F03F
:10174C003DF820602946304600F038F8431C24D17F
:10175C000C233046336000F0BEF8E4E70B685B1BEB
:10176C0018D40B2B0FD90B60CC18CD50304600F091
:10177C00B2F804F10B00231D20F00700C31AD3D0DC
:10178C005A42E250D0E74B688C4216BF636013603C
:10179C000C46EBE70C464968CCE7C41C24F0030468
:1017AC00A04205D0211A304600F008F80130CFD005
:1017BC002560DBE7940000209800002038B500235A
:1017CC00054C054608462360FFF702F8431C02D17E
:1017DC00236803B12B6038BD600100200EB46FF09C
:1017EC00004100B59CB01DAB02900690079104918E
:1017FC000848094953F8042B0591006802A9019384
:10180C0000F0C4F80022029B1A701CB05DF804EBC7
:10181C0003B070470C0000200802FFFF034611F8CC
:10182C00012B03F8012B002AF9D17047134B2DE93A
:10183C00F0411D680646AC6D0F46B4B95020FFF759
:10184C00FBFEA865C0E90044C0E90244C0E90444B9
:10185C00C0E90A44C0E90C44C0E90E44C0E9104494
:10186C00C0E91244846104774462AA6D394630465B
:10187C00BDE8F041012300F003B800BF0C000020CC
:10188C00F0B518B9106808B9F0BD204604460F46EB
:10189C0014F8015B17F8016B1EB96DB91560284679
:1018AC00F2E7B542F6D1002BEFD114600370EBE7F1
:1018BC002B460DE026B91C4623460F4613F8015B58
:1018CC0017F8016BB542F5D1002DF1D00021217034
:1018DC001360D9E7704770472DE9F0478E68824650
:1018EC009E420C469046994637D88A8912F4906FDE
:1018FC0031D00223256809696F1A656905EB450526
:10190C0095FBF3F509F101033B449D4238BF1D469D
:10191C00530530D52946FFF7F7FE064650B90C2380
:10192C004FF0FF30CAF80030A38943F04003A38185
:10193C00BDE8F0873A462169FFF786FEA38923F4B8
:10194C00906343F08003A38126613E4426604E469B
:10195C006561ED1BA5604E4500D94E4632464146A9
:10196C00206800F0A1FAA36800209B1BA3602368E9
:10197C001E442660DCE72A4600F0AFFA0646002833
:10198C00E2D121695046FFF773FEC8E72DE9F04F0D
:10199C001D468B899DB01F0680460C4616460FD5FA
:1019AC000B696BB94021FFF7AFFE2060206128B9AD
:1019BC000C23C8F800304FF0FF30C8E040236361BF
:1019CC000023099320238DF8293030234FF0010B8D
:1019DC008DF82A30039537463D4615F8013B0BB17F
:1019EC00252B3ED1B7EB060A0BD053463246214687
:1019FC004046FFF771FF013000F0A480099B53446F
:101A0C0009933B78002B00F09D8000234FF0FF32B0
:101A1C00CDE90523049307938DF853301A932F4681
:101A2C00052217F8011B504800F030FA049BD0B97E
:101A3C00D90644BF20228DF853201A0744BF2B220D
:101A4C008DF853202A782A2A15D02F4600200A25F3
:101A5C00079A394611F8013B303B092B4DD9B8B1E7
:101A6C000FE02F46B8E7404A3D46801A0BFA00F0CB
:101A7C0018430490D3E7039A111D12680391002AAE
:101A8C0001DB079204E0524243F0020307920493F5
:101A9C003B782E2B0CD17B782A2B33D1039B02372E
:101AAC001A1D1B680392002BB8BF4FF0FF33059330
:101ABC002E4D03223978284600F0E8F938B140233E
:101ACC00401B03FA00F0049B01370343049339785D
:101ADC00062227487E1C8DF8281000F0D7F9002824
:101AEC0038D0244B13BB039B073323F00703083375
:101AFC000393099B4B4409936DE705FB02320120CC
:101B0C000F46A6E700230A251946013705933846E8
:101B1C0010F8012B303A092A03D9002BC8D00591B3
:101B2C00C6E705FB012101230746F0E703AB009351
:101B3C002246114B04A94046AFF30080B0F1FF3FA1
:101B4C008146D6D1A3895B063FF535AF09981DB008
:101B5C00BDE8F08F03AB00932246074B04A9404627
:101B6C0000F082F8EAE700BF942200089A220008ED
:101B7C009E22000800000000E51800082DE9F0473F
:101B8C0091461F468A680B6906469342B8BF1346B6
:101B9C00C9F8003091F843200C46DDF8208012B1D2
:101BAC000133C9F800302368990642BFD9F80030D8
:101BBC000233C9F80030256815F0060507D104F189
:101BCC00190AE368D9F800209B1AAB4229DC94F877
:101BDC0043302268003318BF012392062ED404F13F
:101BEC00430239463046C047013021D02368E568AE
:101BFC0003F00603042B18BF0025D9F800204FF082
:101C0C00000908BFAD1AA368226908BF25EAE5756B
:101C1C009342C4BF9B1AED181A344D451AD10020BB
:101C2C0008E00123524639463046C047013003D103
:101C3C004FF0FF30BDE8F0870135C2E73020E118E6
:101C4C0081F843005A1C94F845102244023382F860
:101C5C004310C4E70123224639463046C0470130C1
:101C6C00E6D009F10109D8E72DE9F04301F1430C65
:101C7C000C46097E85B06E291746064698460C9A86
:101C8C0000F0B38022D8632936D00AD8002900F09E
:101C9C00B980582900F0838004F1420584F8421081
:101CAC0032E0642901D06929F6D120681368050651
:101CBC0003F104012AD51B681160002B03DA2D22D5
:101CCC005B4284F843206F480A2239E0732900F004
:101CDC009D8008D86F2920D07029DDD1236843F06E
:101CEC002003236003E0752917D07829D4D17823F9
:101CFC00654884F8453055E0136804F14205191D18
:101D0C001B68116084F8423001238CE01B6810F0D2
:101D1C00400F116018BF1BB2CFE713682568181D60
:101D2C001060280601D51B6802E06806FBD51B88ED
:101D3C006F2914BF0A2208225248002184F843104C
:101D4C006568002DA560C0F29580216821F0040122
:101D5C002160002B3DD1002D40F08E806546082A75
:101D6C000BD12368DB0708D5236962689A42DEBF72
:101D7C00302305F8013C05F1FF35ACEB050323617D
:101D8C00CDF800803B4603AA21463046FFF7F6FE0D
:101D9C0001304DD14FF0FF3005B0BDE8F08339482C
:101DAC0084F84510136821681D1D1B6815600A0610
:101DBC000BD5CA0744BF41F0200121601BB9226832
:101DCC0022F0200222601022B7E74D0648BF9BB2DA
:101DDC00EFE76546B3FBF2F102FB1133C35C05F888
:101DEC00013D0B460029F5D1B9E713682568181D8C
:101DFC006169106028061B6801D5196002E06A064B
:101E0C00FBD51980002365462361B9E71368191DBA
:101E1C0011601D6862680021284600F037F808B18F
:101E2C00401B606063682361002384F84330A7E79C
:101E3C0023692A4639463046C0470130AAD0236868
:101E4C009B0713D4E068039B9842B8BF1846A3E7DE
:101E5C0001234A4639463046C04701309AD00135F5
:101E6C00E368039A9B1AAB42F2DCEBE7002504F122
:101E7C001909F5E7002BACD1037804F1420584F87D
:101E8C0042306CE7A5220008B622000810B5C9B292
:101E9C0002449042034601D1002303E01C78013038
:101EAC008C42F6D1184610BD884210B501EB0203E6
:101EBC0007D8421E99420AD011F8014B02F8014F83
:101ECC00F8E78342F5D98118D21AD34200D110BD5C
:101EDC0013F8014D01F8014DF7E7F8B50746144624
:101EEC000E4621B9BDE8F8401146FFF70DBC22B9EA
:101EFC00FFF7BEFB25462846F8BD00F014F8A042BB
:101F0C000FD221463846FFF7FFFB05460028F2D0DA
:101F1C0031462246FFF798FB31463846FFF7A8FBBF
:101F2C00E9E73546E7E751F8043C181F002BBCBF26
:101F3C000B58C01870470000F8B500BFF8BC08BCBF
:101F4C009E467047F8B500BFF8BC08BC9E4670476B
:101F5C00000000000000000000000000010203046B
:101F6C00060708090000000001020304020304052F
:101F7C00060708090A0B0C0D0E0F101001020000C9
:101F8C002C0000004641494C0D0A00004F4B0D0A35
:101F9C000000000041540D0A0000000041542B5277
:101FAC00455345540D0A000041542B564552534994
:101FBC004F4E3F0D0A0000002B56455253494F4ED1
:101FCC000000000041542B4F52474C0D0A000000FA
:101FDC0041542B414444523F0D0A00002B414444D0
:101FEC005200000041542B4E414D453D0000000075
:101FFC0041542B4E414D453F0D0A00002B4E414D97
:10200C004500000041542B524E414D453F0000000D
:10201C002B524E414D45000041542B524F4C453DE7
:10202C000000000041542B524F4C453F0D0A00005C
:10203C002B524F4C4500000041542B434C41535301
:10204C003D00000041542B434C4153533F0D0A00BB
:10205C002B434C415353000041542B4941433D0009
:10206C0041542B4941430D0A000000002B494143C8
:10207C000000000041542B494E514D3D0000000022
:10208C0041542B494E514D3F0D0A00002B494E51E6
:10209C004D00000041542B505357443D00000000AC
:1020AC0041542B505357443F0D0A00002B505357AB
:1020BC004400000041542B554152543D0000000097
:1020CC0041542B554152543F0D0A00002B5541529F
:1020DC005400000041542B434D4F44453D0000003B
:1020EC0041542B434D4F44453F0D0A002B434D4F5C
:1020FC004445000041542B42494E443D0000000031
:10210C0041542B42494E443F0D0A00002B42494E8C
:10211C004400000041542B504F4C41523D000000F4
:10212C0041542B504F4C41523F0D0A002B504F4CF9
:10213C004152000041542B50494F3D0041542B4912
:10214C00505343414E3D000041542B4950534341A1
:10215C004E3F0D0A000000002B49505343414E00E6
:10216C0041542B534E4946463D00000041542B53DD
:10217C004E4946463F0D0A002B534E494646000039
:10218C0041542B53454E4D3D0000000041542B5300
:10219C00454E4D3F0D0A00002B53454E4D0000009F
:1021AC0041542B504D5341443D00000041542B529F
:1021BC004D4141440D0A000041542B465341443DCE
:1021CC000000000041542B4144434E3F0D0A0000D7
:1021DC002B4144434E00000041542B4D5241443F8F
:1021EC000D0A00002B4D52414400000041542B536A
:1021FC00544154453F0D0A002B53544154450000A3
:10220C0041542B494E49540D0A00000041542B49AE
:10221C004E510D0A000000002B494E5100000000E9
:10222C0041542B494E51430D0A00000041542B5090
:10223C004149523D0000000041542B4C494E4B3D4E
:10224C000000000041542B444953433D0000000062
:10225C002B4449534300000041542B454E534E49E7
:10226C0046463D0041542B4558534E4946463D0089
:10227C0033383430300000004D65754D6F64756C2B
:10228C006F48433035000000232D302B2000686C44
:10229C004C0065666745464700303132333435367D
:1022AC0037383941424344454600303132333435B6
:0C22BC00363738396162636465660000E3
:0422C80031010008D8
:0422CC000D010008F8
:1022D0000024F400010000001000000010000020A5
:1022E00000000000000000000000000000000000EE
:1022F00000000000000000000000000000000000DE
:1023000000000000000000000000000000000000CD
:1023100000000000000000000000000000000000BD
:1023200000000000000000000000000000000000AD
:10233000000000000000000000000000000000009D
:04000005080015A535
:00000001FF
