:020000040800F2
:100000000050002099120008B1040008B304000851
:10001000B5040008B7040008B90400080000000097
:10002000000000000000000000000000BB04000809
:10003000BD04000800000000BF040008C10400085F
:10004000E1120008E1120008E1120008E1120008C4
:10005000E1120008E1120008E1120008E1120008B4
:10006000E1120008E1120008E1120008E1120008A4
:10007000E1120008E1120008E1120008E112000894
:10008000E1120008E1120008E1120008E112000884
:10009000E1120008E1120008E1120008E112000874
:1000A000E1120008E1120008E1120008E112000864
:1000B000E1120008E1120008E1120008E112000854
:1000C000E1120008E1120008E1120008E112000844
:1000D000E1120008E1120008E1120008E112000834
:1000E000C9040008E1120008E11200080000000045
:1000F0000000000000000000000000000000000000
:0C01000000000000000000005FF808F1A3
:10010C0010B5054C237833B9044B13B10448AFF345
:10011C0000800123237010BD70000020000000003F
:10012C003014000808B5034B1BB103490348AFF367
:10013C00008008BD0000000074000020301400088E
:10014C00034613F8012B002AFBD1181A013870470B
:10015C00F0B40446074F00F140063D462068616844
:10016C00A268E3680FC510342F46B442F5D1F0BC39
:10017C00704700BFA000002010B50446FFF7E0FF59
:10018C004FF47A7382B22146014800F09DFF10BDF6
:10019C00A000002038B5054601F0C8F804464FF41D
:1001AC007A73AAB20146024800F0FEFF204638BD21
:1001BC00A000002030B589B0002404940594069466
:1001CC000794254B9A6942F010029A619A6902F0E1
:1001DC0010020092009A9A6942F020029A619A6980
:1001EC0002F020020192019A9A6942F004029A618B
:1001FC009A6902F004020292029A9A6942F0080289
:10020C009A619B6903F008030393039B134D2246E9
:10021C002021284600F04EFB4FF400530493104B62
:10022C000593069404A90F4800F058FA2023049370
:10023C000123059306940223079304A9284600F092
:10024C004DFA22462146282000F0F0F9282000F033
:10025C0021FA09B030BD00BF001002400008014077
:10026C00000011100010014008B50848084B03604D
:10027C004FF41643436000238360C36003610C2278
:10028C0042618361C36100F0F0FE08BD20010020D3
:10029C000044004008B50848084B03604FF416436F
:1002AC00436000238360C36003610C22426183615D
:1002BC00C36100F0DAFE08BDE00000200038014008
:1002CC00B0F5005F00D07047014B01221A70FAE7BD
:1002DC008C00002030B591B02022002107A801F03D
:1002EC002DF800240194029403940494059402259F
:1002FC00069501230A9310230B930D954FF460136D
:10030C000F9306A800F000FB0F23019302950394B2
:10031C004FF4806304930594294601A800F034FD42
:10032C0011B030BD08B500F037F9FFF7D3FFFFF778
:10033C0041FFFFF799FFFFF7ADFF1448FFF708FFE8
:10034C0012E01348FFF718FF4FF47A7000F048F9E9
:10035C001048FFF711FF104B00221A7008E0012221
:10036C0020210E4800F0A6FA0B4B1B78002BE8D18D
:10037C000120FFF70FFF03784C2BF0D0442BF3D167
:10038C0000222021054800F095FAEDE7E00000205E
:10039C0074140008781400088C0000200008014038
:1003AC0082B00E4B9A6942F001029A619A6902F08E
:1003BC0001020092009ADA6942F08052DA61DB693C
:1003CC0003F080530193019B054A536823F0E063CB
:1003DC0043F00073536002B0704700BF001002403E
:1003EC000000014010B588B00023049305930693D8
:1003FC0007930368274A934204D0274A93422BD091
:10040C0008B010BD254B9A6942F480429A619A69F2
:10041C0002F480420092009A9A6942F004029A61B6
:10042C009B6903F004030193019B4FF40073049345
:10043C000223059303230793194C04A9204600F0CB
:10044C004DF94FF48063049300230593069304A99C
:10045C00204600F043F9D3E7104BDA6942F400323E
:10046C00DA61DA6902F400320292029A9A6942F075
:10047C0004029A619B6903F004030393039B0C230E
:10048C00049302230593079304A9054800F026F969
:10049C00B6E700BF003801400044004000100240A5
:1004AC0000080140FEE7FEE7FEE7FEE7FEE77047C7
:1004BC007047704708B500F081F808BD08B54FF4D7
:1004CC00005000F0FDF908BD08B503460B4A126850
:1004DC0042B10A4A106803446A46934206D8074A56
:1004EC00136008BD054A06491160F2E700F0F4FEFE
:1004FC000C2303604FF0FF30F3E700BF90000020A7
:10050C00680100200F4B1A6842F001021A6059680A
:10051C000D4A0A405A601A6822F0847222F4803222
:10052C001A601A6822F480221A605A6822F4FE02B9
:10053C005A604FF41F029A60044B4FF000629A60AD
:10054C00704700BF001002400000FFF800ED00E013
:10055C0010B504460E4B18784FF47A73B3FBF0F3D6
:10056C000C4A1068B0FBF3F000F0A2F868B90F2C3D
:10057C0001D901200AE0002221464FF0FF3000F0A3
:10058C0055F8034B5C60002000E0012010BD00BF5B
:10059C00040000200000002008B5074A136843F04F
:1005AC0010031360032000F02FF80020FFF7D0FF9A
:1005BC00FFF7F6FE002008BD00200240034A116838
:1005CC00034B1B780B441360704700BF6001002085
:1005DC0004000020014B1868704700BF6001002028
:1005EC0038B50446FFF7F6FF0546B4F1FF3F02D0DD
:1005FC00044B1B781C44FFF7EDFF401BA042FAD3C1
:10060C0038BD00BF04000020074AD36823F4E06320
:10061C001B041B0C000200F4E060184340F0BF60A8
:10062C0040F40030D060704700ED00E030B4174B60
:10063C00DB68C3F30223C3F10704042C28BF042492
:10064C001D1D062D18D9033B4FF0FF3505FA04F498
:10065C0021EA0401994005FA03F322EA0303194342
:10066C0000280BDB0901C9B200F1604000F56140C4
:10067C0080F8001330BC70470023E5E700F00F0052
:10068C000901C9B2024B1954F4E700BF00ED00E0B8
:10069C0014ED00E0002807DB00F01F0240090123E5
:1006AC009340024A42F82030704700BF00E100E05E
:1006BC000138B0F1807F0AD2064B5860064AF0210F
:1006CC0082F823100020986007221A6070470120DE
:1006DC00704700BF10E000E000ED00E0F0B482B025
:1006EC0000263246A2E0002D5AD0012D00D1CE6852
:1006FC00FF2B69D88446FF2B69D89500DCF80040A5
:10070C000F27AF4024EA070406FA05F52C43CCF872
:10071C0000404C6814F0805F00F087805F4CA56946
:10072C0045F00105A561A46904F001040194019C44
:10073C009508AF1C5A4C54F8274002F00307BF0031
:10074C004FF00F0C0CFA07FC24EA0C0C554CA04291
:10075C0043D004F58064A04200F0818004F58064ED
:10076C00A0427ED004F58064A04234D0042435E04D
:10077C004D4FBD4214D00BD94C4FBD4210D007F594
:10078C008037BD420CD0A7F58017BD42B0D107E031
:10079C00A7F58017BD4203D007F58037BD42A7D11E
:1007AC008D687DB1012D08D044610826A0E7CE6884
:1007BC0008369DE7CE680C369AE70461082697E761
:1007CC00002695E7042693E700F1040C93E7A2F1C9
:1007DC000805AD0092E7032400E00024BC4044EA85
:1007EC000C0402352E4F47F825404C6814F4803F1A
:1007FC0039D02F4D2C681C432C604C6814F4003FEE
:10080C0037D02B4D6C681C436C604C6814F4801F03
:10081C0035D0274DAC681C43AC604C6814F4001FF9
:10082C0033D0234DEC682343EB6001320B6833FA71
:10083C0002F430D00124944023409C42F5D14D6801
:10084C00122DB7D094D8022DB1D07FF64CAF032D1A
:10085C00B6D0112D7FF44CAFCE68043648E7012496
:10086C00BCE70224BAE7124D2C6824EA03042C607E
:10087C00C3E70F4D6C6824EA03046C60C5E70C4DAC
:10088C00AC6824EA0304AC60C7E7094DEC6824EAC1
:10089C000303EB60C9E702B0F0BC704700100240E4
:1008AC000000014000080140000021100000311040
:1008BC000004014012B909040161704701617047DD
:1008CC0008B5054B5B69034200D108BD024B58616A
:1008DC00FFF7F6FCF9E700BF0004014082B0084BBB
:1008EC001B68084AA2FB03235B0A00FB03F0019080
:1008FC0000BF019B5A1E0192002BF9D102B0704728
:10090C0000000020D34D6210002800F0F58170B576
:10091C0082B00446036813F0010F2CD0AB4B5B681C
:10092C0003F00C03042B1DD0A84B5B6803F00C03E5
:10093C00082B12D06368B3F5803F41D0002B55D102
:10094C0003F1804303F504331A6822F480321A60F1
:10095C001A6822F480221A6037E09C4B5B6813F40F
:10096C00803FE7D0994B1B6813F4003F03D06368BA
:10097C00002B00F0C381236813F0020F76D0934B49
:10098C005B6813F00C0F5FD0904B5B6803F00C03AB
:10099C00082B54D02369002B00F08A808C4B012249
:1009AC001A60FFF717FE0546884B1B6813F0020F01
:1009BC0075D1FFF70FFE401B0228F5D90320A0E1EB
:1009CC00824A136843F480331360636843B3FFF7C0
:1009DC0001FE05467D4B1B6813F4003FCBD1FFF79E
:1009EC00F9FD401B6428F5D903208AE1B3F5A02F4B
:1009FC0009D0764B1A6822F480321A601A6822F4F5
:100A0C0080221A60E1E703F18043A3F53C331A68B6
:100A1C0042F480221A601A6842F480321A60D4E7D9
:100A2C00FFF7D8FD0546694B1B6813F4003FA2D0B5
:100A3C00FFF7D0FD401B6428F5D9032061E1634B1F
:100A4C005B6813F4803FA5D1604B1B6813F0020F59
:100A5C0004D02369012B01D0012052E15B4A1368B9
:100A6C0023F0F803616943EAC1031360236813F0B0
:100A7C00080F32D0A369002B5BD0564B01221A60B1
:100A8C00FFF7A8FD0546514B5B6A13F0020F21D10D
:100A9C00FFF7A0FD401B0228F5D9032031E14B4A9A
:100AAC00136823F0F803616943EAC1031360DDE7BF
:100ABC00474B00221A60FFF78DFD0546434B1B6820
:100ACC0013F0020FD2D0FFF785FD401B0228F5D999
:100ADC00032016E10120FFF701FF236813F0040F38
:100AEC0000F09880394BDB6913F0805F33D1374BC2
:100AFC00DA6942F08052DA61DB6903F080530193CA
:100B0C00019B0125344B1B6813F4807F25D0E368CF
:100B1C00012B36D0002B4CD103F1804303F5043369
:100B2C001A6A22F001021A621A6A22F004021A628C
:100B3C002CE0284B00221A60FFF74CFD0546234B96
:100B4C005B6A13F0020FC8D0FFF744FD401B02286C
:100B5C00F5D90320D5E00025D4E71F4A136843F4E8
:100B6C0080731360FFF736FD06461B4B1B6813F4AE
:100B7C00807FCCD1FFF72EFD801B6428F5D9032094
:100B8C00BFE0124A136A43F001031362E3687BB3BC
:100B9C00FFF720FD06460D4B1B6A13F0020F38D1F0
:100BAC00FFF718FD801B41F288339842F3D90320DC
:100BBC00A7E0052B12D0054B1A6A22F001021A622B
:100BCC001A6A22F004021A62E0E700BF0010024029
:100BDC000000424280044242007000404C4B1A6AB2
:100BEC0042F004021A621A6A42F001021A62CDE75C
:100BFC00FFF7F0FC0646464B1B6A13F0020F08D0B9
:100C0C00FFF7E8FC801B41F288339842F3D90320AC
:100C1C0077E0E5B9E369002B72D03D4A526802F0E7
:100C2C000C02082A56D0022B17D03A4B00221A601D
:100C3C00FFF7D0FC0446364B1B6813F0007F47D0FF
:100C4C00FFF7C8FC001B0228F5D9032059E0304AF5
:100C5C00D36923F08053D361DCE72E4B00221A605A
:100C6C00FFF7B8FC05462A4B1B6813F0007F06D033
:100C7C00FFF7B0FC401B0228F5D9032041E0236AA2
:100C8C00B3F5803F1AD022494B6823F47413226ABF
:100C9C00606A024313434B601E4B01221A60FFF73C
:100CAC0099FC04461A4B1B6813F0007F0ED1FFF71A
:100CBC0091FC001B0228F5D9032022E0144A53684A
:100CCC0023F40033A1680B435360DCE7002018E0E9
:100CDC00002016E0012B16D00D4B5B6803F480311D
:100CEC00226A914201D001200BE003F47013626A76
:100CFC0093420AD0012004E001207047012000E05B
:100D0C00002002B070BD0120FBE70020F9E700BF16
:100D1C00001002406000424210B487B0164C94E8B8
:100D2C000F000DF1180C0CE90F00238AADF80430FC
:100D3C00124B5B6803F00C02082A1AD1C3F38342EE
:100D4C00624412F8102C13F4803F05D10C4800FBC0
:100D5C0002F007B010BC7047084B5B68C3F340430C
:100D6C00634413F8143C074800FB02F0B0FBF3F0AB
:100D7C00EFE70448EDE700BF6014000800100240E4
:100D8C0000093D0000127A00002800F0A38070B525
:100D9C000446524B1B6803F007038B420CD24F4A9C
:100DAC00136823F007030B431360136803F0070366
:100DBC008B4201D0012070BD236813F0020F17D0B5
:100DCC0013F0040F04D0464A536843F4E0635360B5
:100DDC00236813F0080F04D0414A536843F460535E
:100DEC0053603F4A536823F0F003A06803435360F9
:100DFC000D46236813F0010F31D06368012B20D00E
:100E0C00022B25D0364A126812F0020F64D03449F6
:100E1C004A6822F0030213434B60FFF7DBFB0646E4
:100E2C002F4B5B6803F00C036268B3EB820F16D098
:100E3C00FFF7D0FB801B41F288339842F0D9032096
:100E4C00B9E7274A126812F4003FE0D10120B2E75B
:100E5C00234A126812F0007FD9D10120ABE71F4B57
:100E6C001B6803F00703AB420CD91C4A136823F030
:100E7C0007032B431360136803F00703AB4201D045
:100E8C00012098E7236813F0040F06D0144A536826
:100E9C0023F4E063E1680B435360236813F0080FFD
:100EAC0007D00F4A536823F46053216943EAC10306
:100EBC005360FFF731FF0A4B5B68C3F30313094A16
:100ECC00D35CD840084B1860084B1868FFF740FB00
:100EDC00002070E70120704701206CE700200240E1
:100EEC0000100240481400080000002008000020F8
:100EFC00014B1868704700BF0000002008B5FFF7D1
:100F0C00F7FF044B5B68C3F30223034AD35CD8405E
:100F1C0008BD00BF001002405814000808B5FFF7C8
:100F2C00E7FF044B5B68C3F3C223034AD35CD8408E
:100F3C0008BD00BF001002405814000838B5044624
:100F4C000268136923F44053C1680B43136183682F
:100F5C000269134342691A430168CB6823F4B05306
:100F6C0023F00C031343CB600268536923F44073E2
:100F7C0081690B4353610268214B9A421FD0FFF7E2
:100F8C00BDFF00EB800000EB800063689B00B0FBB2
:100F9C00F3F01C4DA5FB00325109642202FB110237
:100FAC0013013233A5FB03235B0903F0F00202EBC0
:100FBC00011203F00F03216813448B6038BDFFF757
:100FCC00ADFF00EB800000EB800063689B00B0FB82
:100FDC00F3F00C4DA5FB00325109642202FB110207
:100FEC0013013233A5FB03235B0903F0F00202EB80
:100FFC00011203F00F03216813448B60DEE700BF7E
:10100C00003801401F85EB512DE9F04105460F4694
:10101C0016469846069C2B681B6837EA03030CBFE0
:10102C0001230023B3421DD1B4F1FF3FF3D02CB107
:10103C00FFF7D0FAA0EB0800A042ECD92A68D368DD
:10104C0023F4D073D3602A68536923F001035361EE
:10105C00202385F8393085F83A30002385F838306C
:10106C00032000E00020BDE8F08158B310B5044621
:10107C0090F839300BB3242384F839302268D368C4
:10108C0023F40053D3602046FFF758FF22681369FE
:10109C0023F4904313612268536923F02A035361AC
:1010AC002268D36843F40053D3600020E06320230C
:1010BC0084F8393084F83A3010BD80F83830FFF7B6
:1010CC0091F9D8E7012070472DE9F04182B01E4616
:1010DC0090F83930DBB2202B55D104460D469046A2
:1010EC00002955D0002A55D090F83830012B53D018
:1010FC00012380F838300023C363212380F8393072
:10110C00FFF768FA0746A4F82480A4F8268010E0BC
:10111C0000963B46002280212046FFF775FF0028F1
:10112C003CD12B882268C3F3080353602369C3B9ED
:10113C000235E38C9BB2B3B1E38C013B9BB2E384ED
:10114C00A368B3F5805FE3D000963B460022802174
:10115C002046FFF759FF18BB2A7823685A600135DF
:10116C00E7E70135E5E700963B46002240212046A3
:10117C00FFF74AFF0346A8B9202284F83920002241
:10118C0084F8382000E00223184602B0BDE8F08154
:10119C000123F9E70123F7E70223F5E70323F3E73C
:1011AC000323F1E70323EFE72DE9F04182B01E465C
:1011BC0090F83A30DBB2202B5AD104460D469046BB
:1011CC00002959D0002A59D090F83830012B57D02B
:1011DC00012380F838300023C363222380F83A308F
:1011EC00FFF7F8F90746A4F82C80A4F82E801DE030
:1011FC0000963B46002220212046FFF705FF0028E1
:10120C0040D1236933B923685B68C3F3080325F81D
:10121C00023B0BE023685B68DBB225F8013B05E081
:10122C0023685B6803F07F032B700135E38D9BB261
:10123C00BBB1E38D013B9BB2E385A368B3F5805F43
:10124C00D6D000963B46002220212046FFF7DCFE3C
:10125C00D0B92369002BE3D123685B682B7001356F
:10126C00E4E7202384F83A30002084F8380000E0CA
:10127C00022002B0BDE8F0810120FAE70120F8E776
:10128C000220F6E70320F4E70320F2E7002103E055
:10129C000B4B5B58435004310A480B4B42189A4293
:1012AC00F6D30A4A02E0002342F8043B084B9A4268
:1012BC00F9D3FFF727F900F015F8FFF733F870476B
:1012CC008414000800000020700000207000002032
:1012DC0068010020FEE70000014B1868704700BF52
:1012EC000C00002070B500250C4E0D4CA41BA41056
:1012FC00A54209D100F096F800250A4E0A4CA41B11
:10130C00A410A54205D170BD56F82530984701357B
:10131C00EEE756F8253098470135F2E77C140008C3
:10132C007C1400087C14000880140008024B014651
:10133C00186800F00BB800BF0C00002003460244F4
:10134C00934200D1704703F8011BF9E770B5CD1C2F
:10135C0025F0030508350C2D38BF0C25002D06464D
:10136C0001DBA94203D90C233360002070BD00F0CF
:10137C0057F8214A1468214691B9204C23681BB9AF
:10138C00304600F03DF820602946304600F038F831
:10139C00431C24D10C233046336000F042F8E4E7C0
:1013AC000B685B1B18D40B2B0FD90B60CC18CD50D2
:1013BC00304600F036F804F10B00231D20F0070036
:1013CC00C31AD3D05A42E250D0E74B688C4216BFB6
:1013DC00636013600C46EBE70C464968CCE7C41C11
:1013EC0024F00304A04205D0211A304600F008F87E
:1013FC000130CFD02560DBE7980000209C00002056
:10140C0038B50023054C054608462360FFF75CF809
:10141C00431C02D1236803B12B6038BD640100204A
:10142C0070477047F8B500BFF8BC08BC9E467047C3
:0C143C00F8B500BFF8BC08BC9E46704725
:10144800000000000000000001020304060708096C
:10145800000000000102030402030405060708094E
:101468000A0B0C0D0E0F10100102000031000000D5
:041478003000000040
:04147C003101000832
:041480000D01000852
:101484000024F400010000001000000010000020FF
:101494000000000000000000000000000000000048
:1014A4000000000000000000000000000000000038
:1014B4000000000000000000000000000000000028
:1014C4000000000000000000000000000000000018
:1014D4000000000000000000000000000000000008
:1014E40000000000000000000000000000000000F8
:040000050800129944
:00000001FF
